:020000040000FA
:060000000A128A11F62F1E
:100F4C0001340230831603138600831203138601C7
:100F5C0008000A128A11A7270A128A110A128A118A
:100F6C00BC270A128A110A128A1100288312031351
:100F7C00861CC12FC22FE52F8618C52FC62FC22F56
:100F8C000130F0007008F306E52F06080139F00077
:100F9C000130F00606087006FE3970068600033034
:100FAC00F2008A30F1005530F000F00BDB2FF10B22
:100FBC00DB2FF20BDB2FE22FBC2F0614BC2F730898
:100FCC00F000F1017108003A0319ED2FBC2F7008E5
:100FDC00003A0319E32F013A0319CB2FBC2F080059
:100FEC000A128A11A6270A128A11F30083010A1227
:040FFC008A11AF2F78
:02400E00F93F78
:00000001FF
